{
	"data": {
		"bytecode": {
			"linkReferences": {},
			"object": "6080604052348015600e575f80fd5b506109978061001c5f395ff3fe608060405234801561000f575f80fd5b506004361061003f575f3560e01c806306ead22e1461004357806362dc146b14610074578063642f916314610090575b5f80fd5b61005d6004803603810190610058919061036f565b6100c1565b60405161006b929190610425565b60405180910390f35b61008e600480360381019061008991906105a9565b610181565b005b6100aa60048036038101906100a5919061036f565b6101ff565b6040516100b8929190610425565b60405180910390f35b5f81815481106100cf575f80fd5b905f5260205f2090600202015f91509050805f0180546100ee90610630565b80601f016020809104026020016040519081016040528092919081815260200182805461011a90610630565b80156101655780601f1061013c57610100808354040283529160200191610165565b820191905f5260205f20905b81548152906001019060200180831161014857829003601f168201915b505050505090806001015f9054906101000a900460ff16905082565b5f60405180604001604052808481526020018360ff1681525090505f81908060018154018082558091505060019003905f5260205f2090600202015f909190919091505f820151815f0190816101d791906107fd565b506020820151816001015f6101000a81548160ff021916908360ff1602179055505050505050565b60605f80805490508310610248576040517f08c379a000000000000000000000000000000000000000000000000000000000815260040161023f90610916565b60405180910390fd5b5f838154811061025b5761025a610934565b5b905f5260205f2090600202015f015f848154811061027c5761027b610934565b5b905f5260205f2090600202016001015f9054906101000a900460ff168180546102a490610630565b80601f01602080910402602001604051908101604052809291908181526020018280546102d090610630565b801561031b5780601f106102f25761010080835404028352916020019161031b565b820191905f5260205f20905b8154815290600101906020018083116102fe57829003601f168201915b5050505050915091509150915091565b5f604051905090565b5f80fd5b5f80fd5b5f819050919050565b61034e8161033c565b8114610358575f80fd5b50565b5f8135905061036981610345565b92915050565b5f6020828403121561038457610383610334565b5b5f6103918482850161035b565b91505092915050565b5f81519050919050565b5f82825260208201905092915050565b8281835e5f83830152505050565b5f601f19601f8301169050919050565b5f6103dc8261039a565b6103e681856103a4565b93506103f68185602086016103b4565b6103ff816103c2565b840191505092915050565b5f60ff82169050919050565b61041f8161040a565b82525050565b5f6040820190508181035f83015261043d81856103d2565b905061044c6020830184610416565b9392505050565b5f80fd5b5f80fd5b7f4e487b71000000000000000000000000000000000000000000000000000000005f52604160045260245ffd5b610491826103c2565b810181811067ffffffffffffffff821117156104b0576104af61045b565b5b80604052505050565b5f6104c261032b565b90506104ce8282610488565b919050565b5f67ffffffffffffffff8211156104ed576104ec61045b565b5b6104f6826103c2565b9050602081019050919050565b828183375f83830152505050565b5f61052361051e846104d3565b6104b9565b90508281526020810184848401111561053f5761053e610457565b5b61054a848285610503565b509392505050565b5f82601f83011261056657610565610453565b5b8135610576848260208601610511565b91505092915050565b6105888161040a565b8114610592575f80fd5b50565b5f813590506105a38161057f565b92915050565b5f80604083850312156105bf576105be610334565b5b5f83013567ffffffffffffffff8111156105dc576105db610338565b5b6105e885828601610552565b92505060206105f985828601610595565b9150509250929050565b7f4e487b71000000000000000000000000000000000000000000000000000000005f52602260045260245ffd5b5f600282049050600182168061064757607f821691505b60208210810361065a57610659610603565b5b50919050565b5f819050815f5260205f209050919050565b5f6020601f8301049050919050565b5f82821b905092915050565b5f600883026106bc7fffffffffffffffffffffffffffffffffffffffffffffffffffffffffffffffff82610681565b6106c68683610681565b95508019841693508086168417925050509392505050565b5f819050919050565b5f6107016106fc6106f78461033c565b6106de565b61033c565b9050919050565b5f819050919050565b61071a836106e7565b61072e61072682610708565b84845461068d565b825550505050565b5f90565b610742610736565b61074d818484610711565b505050565b5b81811015610770576107655f8261073a565b600181019050610753565b5050565b601f8211156107b55761078681610660565b61078f84610672565b8101602085101561079e578190505b6107b26107aa85610672565b830182610752565b50505b505050565b5f82821c905092915050565b5f6107d55f19846008026107ba565b1980831691505092915050565b5f6107ed83836107c6565b9150826002028217905092915050565b6108068261039a565b67ffffffffffffffff81111561081f5761081e61045b565b5b6108298254610630565b610834828285610774565b5f60209050601f831160018114610865575f8415610853578287015190505b61085d85826107e2565b8655506108c4565b601f19841661087386610660565b5f5b8281101561089a57848901518255600182019150602085019450602081019050610875565b868310156108b757848901516108b3601f8916826107c6565b8355505b6001600288020188555050505b505050505050565b7f53747564656e7420646f6573206e6f74206578697374210000000000000000005f82015250565b5f6109006017836103a4565b915061090b826108cc565b602082019050919050565b5f6020820190508181035f83015261092d816108f4565b9050919050565b7f4e487b71000000000000000000000000000000000000000000000000000000005f52603260045260245ffdfea2646970667358221220481550c516a09c833ea7832377e7a50d866cd323022cd5d6c11b04fba38b4b0264736f6c634300081a0033",
			"opcodes": "PUSH1 0x80 PUSH1 0x40 MSTORE CALLVALUE DUP1 ISZERO PUSH1 0xE JUMPI PUSH0 DUP1 REVERT JUMPDEST POP PUSH2 0x997 DUP1 PUSH2 0x1C PUSH0 CODECOPY PUSH0 RETURN INVALID PUSH1 0x80 PUSH1 0x40 MSTORE CALLVALUE DUP1 ISZERO PUSH2 0xF JUMPI PUSH0 DUP1 REVERT JUMPDEST POP PUSH1 0x4 CALLDATASIZE LT PUSH2 0x3F JUMPI PUSH0 CALLDATALOAD PUSH1 0xE0 SHR DUP1 PUSH4 0x6EAD22E EQ PUSH2 0x43 JUMPI DUP1 PUSH4 0x62DC146B EQ PUSH2 0x74 JUMPI DUP1 PUSH4 0x642F9163 EQ PUSH2 0x90 JUMPI JUMPDEST PUSH0 DUP1 REVERT JUMPDEST PUSH2 0x5D PUSH1 0x4 DUP1 CALLDATASIZE SUB DUP2 ADD SWAP1 PUSH2 0x58 SWAP2 SWAP1 PUSH2 0x36F JUMP JUMPDEST PUSH2 0xC1 JUMP JUMPDEST PUSH1 0x40 MLOAD PUSH2 0x6B SWAP3 SWAP2 SWAP1 PUSH2 0x425 JUMP JUMPDEST PUSH1 0x40 MLOAD DUP1 SWAP2 SUB SWAP1 RETURN JUMPDEST PUSH2 0x8E PUSH1 0x4 DUP1 CALLDATASIZE SUB DUP2 ADD SWAP1 PUSH2 0x89 SWAP2 SWAP1 PUSH2 0x5A9 JUMP JUMPDEST PUSH2 0x181 JUMP JUMPDEST STOP JUMPDEST PUSH2 0xAA PUSH1 0x4 DUP1 CALLDATASIZE SUB DUP2 ADD SWAP1 PUSH2 0xA5 SWAP2 SWAP1 PUSH2 0x36F JUMP JUMPDEST PUSH2 0x1FF JUMP JUMPDEST PUSH1 0x40 MLOAD PUSH2 0xB8 SWAP3 SWAP2 SWAP1 PUSH2 0x425 JUMP JUMPDEST PUSH1 0x40 MLOAD DUP1 SWAP2 SUB SWAP1 RETURN JUMPDEST PUSH0 DUP2 DUP2 SLOAD DUP2 LT PUSH2 0xCF JUMPI PUSH0 DUP1 REVERT JUMPDEST SWAP1 PUSH0 MSTORE PUSH1 0x20 PUSH0 KECCAK256 SWAP1 PUSH1 0x2 MUL ADD PUSH0 SWAP2 POP SWAP1 POP DUP1 PUSH0 ADD DUP1 SLOAD PUSH2 0xEE SWAP1 PUSH2 0x630 JUMP JUMPDEST DUP1 PUSH1 0x1F ADD PUSH1 0x20 DUP1 SWAP2 DIV MUL PUSH1 0x20 ADD PUSH1 0x40 MLOAD SWAP1 DUP2 ADD PUSH1 0x40 MSTORE DUP1 SWAP3 SWAP2 SWAP1 DUP2 DUP2 MSTORE PUSH1 0x20 ADD DUP3 DUP1 SLOAD PUSH2 0x11A SWAP1 PUSH2 0x630 JUMP JUMPDEST DUP1 ISZERO PUSH2 0x165 JUMPI DUP1 PUSH1 0x1F LT PUSH2 0x13C JUMPI PUSH2 0x100 DUP1 DUP4 SLOAD DIV MUL DUP4 MSTORE SWAP2 PUSH1 0x20 ADD SWAP2 PUSH2 0x165 JUMP JUMPDEST DUP3 ADD SWAP2 SWAP1 PUSH0 MSTORE PUSH1 0x20 PUSH0 KECCAK256 SWAP1 JUMPDEST DUP2 SLOAD DUP2 MSTORE SWAP1 PUSH1 0x1 ADD SWAP1 PUSH1 0x20 ADD DUP1 DUP4 GT PUSH2 0x148 JUMPI DUP3 SWAP1 SUB PUSH1 0x1F AND DUP3 ADD SWAP2 JUMPDEST POP POP POP POP POP SWAP1 DUP1 PUSH1 0x1 ADD PUSH0 SWAP1 SLOAD SWAP1 PUSH2 0x100 EXP SWAP1 DIV PUSH1 0xFF AND SWAP1 POP DUP3 JUMP JUMPDEST PUSH0 PUSH1 0x40 MLOAD DUP1 PUSH1 0x40 ADD PUSH1 0x40 MSTORE DUP1 DUP5 DUP2 MSTORE PUSH1 0x20 ADD DUP4 PUSH1 0xFF AND DUP2 MSTORE POP SWAP1 POP PUSH0 DUP2 SWAP1 DUP1 PUSH1 0x1 DUP2 SLOAD ADD DUP1 DUP3 SSTORE DUP1 SWAP2 POP POP PUSH1 0x1 SWAP1 SUB SWAP1 PUSH0 MSTORE PUSH1 0x20 PUSH0 KECCAK256 SWAP1 PUSH1 0x2 MUL ADD PUSH0 SWAP1 SWAP2 SWAP1 SWAP2 SWAP1 SWAP2 POP PUSH0 DUP3 ADD MLOAD DUP2 PUSH0 ADD SWAP1 DUP2 PUSH2 0x1D7 SWAP2 SWAP1 PUSH2 0x7FD JUMP JUMPDEST POP PUSH1 0x20 DUP3 ADD MLOAD DUP2 PUSH1 0x1 ADD PUSH0 PUSH2 0x100 EXP DUP2 SLOAD DUP2 PUSH1 0xFF MUL NOT AND SWAP1 DUP4 PUSH1 0xFF AND MUL OR SWAP1 SSTORE POP POP POP POP POP POP JUMP JUMPDEST PUSH1 0x60 PUSH0 DUP1 DUP1 SLOAD SWAP1 POP DUP4 LT PUSH2 0x248 JUMPI PUSH1 0x40 MLOAD PUSH32 0x8C379A000000000000000000000000000000000000000000000000000000000 DUP2 MSTORE PUSH1 0x4 ADD PUSH2 0x23F SWAP1 PUSH2 0x916 JUMP JUMPDEST PUSH1 0x40 MLOAD DUP1 SWAP2 SUB SWAP1 REVERT JUMPDEST PUSH0 DUP4 DUP2 SLOAD DUP2 LT PUSH2 0x25B JUMPI PUSH2 0x25A PUSH2 0x934 JUMP JUMPDEST JUMPDEST SWAP1 PUSH0 MSTORE PUSH1 0x20 PUSH0 KECCAK256 SWAP1 PUSH1 0x2 MUL ADD PUSH0 ADD PUSH0 DUP5 DUP2 SLOAD DUP2 LT PUSH2 0x27C JUMPI PUSH2 0x27B PUSH2 0x934 JUMP JUMPDEST JUMPDEST SWAP1 PUSH0 MSTORE PUSH1 0x20 PUSH0 KECCAK256 SWAP1 PUSH1 0x2 MUL ADD PUSH1 0x1 ADD PUSH0 SWAP1 SLOAD SWAP1 PUSH2 0x100 EXP SWAP1 DIV PUSH1 0xFF AND DUP2 DUP1 SLOAD PUSH2 0x2A4 SWAP1 PUSH2 0x630 JUMP JUMPDEST DUP1 PUSH1 0x1F ADD PUSH1 0x20 DUP1 SWAP2 DIV MUL PUSH1 0x20 ADD PUSH1 0x40 MLOAD SWAP1 DUP2 ADD PUSH1 0x40 MSTORE DUP1 SWAP3 SWAP2 SWAP1 DUP2 DUP2 MSTORE PUSH1 0x20 ADD DUP3 DUP1 SLOAD PUSH2 0x2D0 SWAP1 PUSH2 0x630 JUMP JUMPDEST DUP1 ISZERO PUSH2 0x31B JUMPI DUP1 PUSH1 0x1F LT PUSH2 0x2F2 JUMPI PUSH2 0x100 DUP1 DUP4 SLOAD DIV MUL DUP4 MSTORE SWAP2 PUSH1 0x20 ADD SWAP2 PUSH2 0x31B JUMP JUMPDEST DUP3 ADD SWAP2 SWAP1 PUSH0 MSTORE PUSH1 0x20 PUSH0 KECCAK256 SWAP1 JUMPDEST DUP2 SLOAD DUP2 MSTORE SWAP1 PUSH1 0x1 ADD SWAP1 PUSH1 0x20 ADD DUP1 DUP4 GT PUSH2 0x2FE JUMPI DUP3 SWAP1 SUB PUSH1 0x1F AND DUP3 ADD SWAP2 JUMPDEST POP POP POP POP POP SWAP2 POP SWAP2 POP SWAP2 POP SWAP2 POP SWAP2 JUMP JUMPDEST PUSH0 PUSH1 0x40 MLOAD SWAP1 POP SWAP1 JUMP JUMPDEST PUSH0 DUP1 REVERT JUMPDEST PUSH0 DUP1 REVERT JUMPDEST PUSH0 DUP2 SWAP1 POP SWAP2 SWAP1 POP JUMP JUMPDEST PUSH2 0x34E DUP2 PUSH2 0x33C JUMP JUMPDEST DUP2 EQ PUSH2 0x358 JUMPI PUSH0 DUP1 REVERT JUMPDEST POP JUMP JUMPDEST PUSH0 DUP2 CALLDATALOAD SWAP1 POP PUSH2 0x369 DUP2 PUSH2 0x345 JUMP JUMPDEST SWAP3 SWAP2 POP POP JUMP JUMPDEST PUSH0 PUSH1 0x20 DUP3 DUP5 SUB SLT ISZERO PUSH2 0x384 JUMPI PUSH2 0x383 PUSH2 0x334 JUMP JUMPDEST JUMPDEST PUSH0 PUSH2 0x391 DUP5 DUP3 DUP6 ADD PUSH2 0x35B JUMP JUMPDEST SWAP2 POP POP SWAP3 SWAP2 POP POP JUMP JUMPDEST PUSH0 DUP2 MLOAD SWAP1 POP SWAP2 SWAP1 POP JUMP JUMPDEST PUSH0 DUP3 DUP3 MSTORE PUSH1 0x20 DUP3 ADD SWAP1 POP SWAP3 SWAP2 POP POP JUMP JUMPDEST DUP3 DUP2 DUP4 MCOPY PUSH0 DUP4 DUP4 ADD MSTORE POP POP POP JUMP JUMPDEST PUSH0 PUSH1 0x1F NOT PUSH1 0x1F DUP4 ADD AND SWAP1 POP SWAP2 SWAP1 POP JUMP JUMPDEST PUSH0 PUSH2 0x3DC DUP3 PUSH2 0x39A JUMP JUMPDEST PUSH2 0x3E6 DUP2 DUP6 PUSH2 0x3A4 JUMP JUMPDEST SWAP4 POP PUSH2 0x3F6 DUP2 DUP6 PUSH1 0x20 DUP7 ADD PUSH2 0x3B4 JUMP JUMPDEST PUSH2 0x3FF DUP2 PUSH2 0x3C2 JUMP JUMPDEST DUP5 ADD SWAP2 POP POP SWAP3 SWAP2 POP POP JUMP JUMPDEST PUSH0 PUSH1 0xFF DUP3 AND SWAP1 POP SWAP2 SWAP1 POP JUMP JUMPDEST PUSH2 0x41F DUP2 PUSH2 0x40A JUMP JUMPDEST DUP3 MSTORE POP POP JUMP JUMPDEST PUSH0 PUSH1 0x40 DUP3 ADD SWAP1 POP DUP2 DUP2 SUB PUSH0 DUP4 ADD MSTORE PUSH2 0x43D DUP2 DUP6 PUSH2 0x3D2 JUMP JUMPDEST SWAP1 POP PUSH2 0x44C PUSH1 0x20 DUP4 ADD DUP5 PUSH2 0x416 JUMP JUMPDEST SWAP4 SWAP3 POP POP POP JUMP JUMPDEST PUSH0 DUP1 REVERT JUMPDEST PUSH0 DUP1 REVERT JUMPDEST PUSH32 0x4E487B7100000000000000000000000000000000000000000000000000000000 PUSH0 MSTORE PUSH1 0x41 PUSH1 0x4 MSTORE PUSH1 0x24 PUSH0 REVERT JUMPDEST PUSH2 0x491 DUP3 PUSH2 0x3C2 JUMP JUMPDEST DUP2 ADD DUP2 DUP2 LT PUSH8 0xFFFFFFFFFFFFFFFF DUP3 GT OR ISZERO PUSH2 0x4B0 JUMPI PUSH2 0x4AF PUSH2 0x45B JUMP JUMPDEST JUMPDEST DUP1 PUSH1 0x40 MSTORE POP POP POP JUMP JUMPDEST PUSH0 PUSH2 0x4C2 PUSH2 0x32B JUMP JUMPDEST SWAP1 POP PUSH2 0x4CE DUP3 DUP3 PUSH2 0x488 JUMP JUMPDEST SWAP2 SWAP1 POP JUMP JUMPDEST PUSH0 PUSH8 0xFFFFFFFFFFFFFFFF DUP3 GT ISZERO PUSH2 0x4ED JUMPI PUSH2 0x4EC PUSH2 0x45B JUMP JUMPDEST JUMPDEST PUSH2 0x4F6 DUP3 PUSH2 0x3C2 JUMP JUMPDEST SWAP1 POP PUSH1 0x20 DUP2 ADD SWAP1 POP SWAP2 SWAP1 POP JUMP JUMPDEST DUP3 DUP2 DUP4 CALLDATACOPY PUSH0 DUP4 DUP4 ADD MSTORE POP POP POP JUMP JUMPDEST PUSH0 PUSH2 0x523 PUSH2 0x51E DUP5 PUSH2 0x4D3 JUMP JUMPDEST PUSH2 0x4B9 JUMP JUMPDEST SWAP1 POP DUP3 DUP2 MSTORE PUSH1 0x20 DUP2 ADD DUP5 DUP5 DUP5 ADD GT ISZERO PUSH2 0x53F JUMPI PUSH2 0x53E PUSH2 0x457 JUMP JUMPDEST JUMPDEST PUSH2 0x54A DUP5 DUP3 DUP6 PUSH2 0x503 JUMP JUMPDEST POP SWAP4 SWAP3 POP POP POP JUMP JUMPDEST PUSH0 DUP3 PUSH1 0x1F DUP4 ADD SLT PUSH2 0x566 JUMPI PUSH2 0x565 PUSH2 0x453 JUMP JUMPDEST JUMPDEST DUP2 CALLDATALOAD PUSH2 0x576 DUP5 DUP3 PUSH1 0x20 DUP7 ADD PUSH2 0x511 JUMP JUMPDEST SWAP2 POP POP SWAP3 SWAP2 POP POP JUMP JUMPDEST PUSH2 0x588 DUP2 PUSH2 0x40A JUMP JUMPDEST DUP2 EQ PUSH2 0x592 JUMPI PUSH0 DUP1 REVERT JUMPDEST POP JUMP JUMPDEST PUSH0 DUP2 CALLDATALOAD SWAP1 POP PUSH2 0x5A3 DUP2 PUSH2 0x57F JUMP JUMPDEST SWAP3 SWAP2 POP POP JUMP JUMPDEST PUSH0 DUP1 PUSH1 0x40 DUP4 DUP6 SUB SLT ISZERO PUSH2 0x5BF JUMPI PUSH2 0x5BE PUSH2 0x334 JUMP JUMPDEST JUMPDEST PUSH0 DUP4 ADD CALLDATALOAD PUSH8 0xFFFFFFFFFFFFFFFF DUP2 GT ISZERO PUSH2 0x5DC JUMPI PUSH2 0x5DB PUSH2 0x338 JUMP JUMPDEST JUMPDEST PUSH2 0x5E8 DUP6 DUP3 DUP7 ADD PUSH2 0x552 JUMP JUMPDEST SWAP3 POP POP PUSH1 0x20 PUSH2 0x5F9 DUP6 DUP3 DUP7 ADD PUSH2 0x595 JUMP JUMPDEST SWAP2 POP POP SWAP3 POP SWAP3 SWAP1 POP JUMP JUMPDEST PUSH32 0x4E487B7100000000000000000000000000000000000000000000000000000000 PUSH0 MSTORE PUSH1 0x22 PUSH1 0x4 MSTORE PUSH1 0x24 PUSH0 REVERT JUMPDEST PUSH0 PUSH1 0x2 DUP3 DIV SWAP1 POP PUSH1 0x1 DUP3 AND DUP1 PUSH2 0x647 JUMPI PUSH1 0x7F DUP3 AND SWAP2 POP JUMPDEST PUSH1 0x20 DUP3 LT DUP2 SUB PUSH2 0x65A JUMPI PUSH2 0x659 PUSH2 0x603 JUMP JUMPDEST JUMPDEST POP SWAP2 SWAP1 POP JUMP JUMPDEST PUSH0 DUP2 SWAP1 POP DUP2 PUSH0 MSTORE PUSH1 0x20 PUSH0 KECCAK256 SWAP1 POP SWAP2 SWAP1 POP JUMP JUMPDEST PUSH0 PUSH1 0x20 PUSH1 0x1F DUP4 ADD DIV SWAP1 POP SWAP2 SWAP1 POP JUMP JUMPDEST PUSH0 DUP3 DUP3 SHL SWAP1 POP SWAP3 SWAP2 POP POP JUMP JUMPDEST PUSH0 PUSH1 0x8 DUP4 MUL PUSH2 0x6BC PUSH32 0xFFFFFFFFFFFFFFFFFFFFFFFFFFFFFFFFFFFFFFFFFFFFFFFFFFFFFFFFFFFFFFFF DUP3 PUSH2 0x681 JUMP JUMPDEST PUSH2 0x6C6 DUP7 DUP4 PUSH2 0x681 JUMP JUMPDEST SWAP6 POP DUP1 NOT DUP5 AND SWAP4 POP DUP1 DUP7 AND DUP5 OR SWAP3 POP POP POP SWAP4 SWAP3 POP POP POP JUMP JUMPDEST PUSH0 DUP2 SWAP1 POP SWAP2 SWAP1 POP JUMP JUMPDEST PUSH0 PUSH2 0x701 PUSH2 0x6FC PUSH2 0x6F7 DUP5 PUSH2 0x33C JUMP JUMPDEST PUSH2 0x6DE JUMP JUMPDEST PUSH2 0x33C JUMP JUMPDEST SWAP1 POP SWAP2 SWAP1 POP JUMP JUMPDEST PUSH0 DUP2 SWAP1 POP SWAP2 SWAP1 POP JUMP JUMPDEST PUSH2 0x71A DUP4 PUSH2 0x6E7 JUMP JUMPDEST PUSH2 0x72E PUSH2 0x726 DUP3 PUSH2 0x708 JUMP JUMPDEST DUP5 DUP5 SLOAD PUSH2 0x68D JUMP JUMPDEST DUP3 SSTORE POP POP POP POP JUMP JUMPDEST PUSH0 SWAP1 JUMP JUMPDEST PUSH2 0x742 PUSH2 0x736 JUMP JUMPDEST PUSH2 0x74D DUP2 DUP5 DUP5 PUSH2 0x711 JUMP JUMPDEST POP POP POP JUMP JUMPDEST JUMPDEST DUP2 DUP2 LT ISZERO PUSH2 0x770 JUMPI PUSH2 0x765 PUSH0 DUP3 PUSH2 0x73A JUMP JUMPDEST PUSH1 0x1 DUP2 ADD SWAP1 POP PUSH2 0x753 JUMP JUMPDEST POP POP JUMP JUMPDEST PUSH1 0x1F DUP3 GT ISZERO PUSH2 0x7B5 JUMPI PUSH2 0x786 DUP2 PUSH2 0x660 JUMP JUMPDEST PUSH2 0x78F DUP5 PUSH2 0x672 JUMP JUMPDEST DUP2 ADD PUSH1 0x20 DUP6 LT ISZERO PUSH2 0x79E JUMPI DUP2 SWAP1 POP JUMPDEST PUSH2 0x7B2 PUSH2 0x7AA DUP6 PUSH2 0x672 JUMP JUMPDEST DUP4 ADD DUP3 PUSH2 0x752 JUMP JUMPDEST POP POP JUMPDEST POP POP POP JUMP JUMPDEST PUSH0 DUP3 DUP3 SHR SWAP1 POP SWAP3 SWAP2 POP POP JUMP JUMPDEST PUSH0 PUSH2 0x7D5 PUSH0 NOT DUP5 PUSH1 0x8 MUL PUSH2 0x7BA JUMP JUMPDEST NOT DUP1 DUP4 AND SWAP2 POP POP SWAP3 SWAP2 POP POP JUMP JUMPDEST PUSH0 PUSH2 0x7ED DUP4 DUP4 PUSH2 0x7C6 JUMP JUMPDEST SWAP2 POP DUP3 PUSH1 0x2 MUL DUP3 OR SWAP1 POP SWAP3 SWAP2 POP POP JUMP JUMPDEST PUSH2 0x806 DUP3 PUSH2 0x39A JUMP JUMPDEST PUSH8 0xFFFFFFFFFFFFFFFF DUP2 GT ISZERO PUSH2 0x81F JUMPI PUSH2 0x81E PUSH2 0x45B JUMP JUMPDEST JUMPDEST PUSH2 0x829 DUP3 SLOAD PUSH2 0x630 JUMP JUMPDEST PUSH2 0x834 DUP3 DUP3 DUP6 PUSH2 0x774 JUMP JUMPDEST PUSH0 PUSH1 0x20 SWAP1 POP PUSH1 0x1F DUP4 GT PUSH1 0x1 DUP2 EQ PUSH2 0x865 JUMPI PUSH0 DUP5 ISZERO PUSH2 0x853 JUMPI DUP3 DUP8 ADD MLOAD SWAP1 POP JUMPDEST PUSH2 0x85D DUP6 DUP3 PUSH2 0x7E2 JUMP JUMPDEST DUP7 SSTORE POP PUSH2 0x8C4 JUMP JUMPDEST PUSH1 0x1F NOT DUP5 AND PUSH2 0x873 DUP7 PUSH2 0x660 JUMP JUMPDEST PUSH0 JUMPDEST DUP3 DUP2 LT ISZERO PUSH2 0x89A JUMPI DUP5 DUP10 ADD MLOAD DUP3 SSTORE PUSH1 0x1 DUP3 ADD SWAP2 POP PUSH1 0x20 DUP6 ADD SWAP5 POP PUSH1 0x20 DUP2 ADD SWAP1 POP PUSH2 0x875 JUMP JUMPDEST DUP7 DUP4 LT ISZERO PUSH2 0x8B7 JUMPI DUP5 DUP10 ADD MLOAD PUSH2 0x8B3 PUSH1 0x1F DUP10 AND DUP3 PUSH2 0x7C6 JUMP JUMPDEST DUP4 SSTORE POP JUMPDEST PUSH1 0x1 PUSH1 0x2 DUP9 MUL ADD DUP9 SSTORE POP POP POP JUMPDEST POP POP POP POP POP POP JUMP JUMPDEST PUSH32 0x53747564656E7420646F6573206E6F7420657869737421000000000000000000 PUSH0 DUP3 ADD MSTORE POP JUMP JUMPDEST PUSH0 PUSH2 0x900 PUSH1 0x17 DUP4 PUSH2 0x3A4 JUMP JUMPDEST SWAP2 POP PUSH2 0x90B DUP3 PUSH2 0x8CC JUMP JUMPDEST PUSH1 0x20 DUP3 ADD SWAP1 POP SWAP2 SWAP1 POP JUMP JUMPDEST PUSH0 PUSH1 0x20 DUP3 ADD SWAP1 POP DUP2 DUP2 SUB PUSH0 DUP4 ADD MSTORE PUSH2 0x92D DUP2 PUSH2 0x8F4 JUMP JUMPDEST SWAP1 POP SWAP2 SWAP1 POP JUMP JUMPDEST PUSH32 0x4E487B7100000000000000000000000000000000000000000000000000000000 PUSH0 MSTORE PUSH1 0x32 PUSH1 0x4 MSTORE PUSH1 0x24 PUSH0 REVERT INVALID LOG2 PUSH5 0x6970667358 0x22 SLT KECCAK256 BASEFEE ISZERO POP 0xC5 AND LOG0 SWAP13 DUP4 RETURNDATACOPY 0xA7 DUP4 0x23 PUSH24 0xE7A50D866CD323022CD5D6C11B04FBA38B4B0264736F6C63 NUMBER STOP ADDMOD BYTE STOP CALLER "
		},
		"gasEstimates": {
			"creation": {
				"codeDepositCost": "491000",
				"executionCost": "522",
				"totalCost": "491522"
			},
			"external": {
				"addStudent(string,uint8)": "infinite",
				"getStudent(uint256)": "infinite",
				"students(uint256)": "infinite"
			}
		},
		"methodIdentifiers": {
			"addStudent(string,uint8)": "62dc146b",
			"getStudent(uint256)": "642f9163",
			"students(uint256)": "06ead22e"
		}
	},
	"abi": [
		{
			"inputs": [],
			"stateMutability": "nonpayable",
			"type": "constructor"
		},
		{
			"inputs": [
				{
					"internalType": "string",
					"name": "name",
					"type": "string"
				},
				{
					"internalType": "uint8",
					"name": "age",
					"type": "uint8"
				}
			],
			"name": "addStudent",
			"outputs": [],
			"stateMutability": "nonpayable",
			"type": "function"
		},
		{
			"inputs": [
				{
					"internalType": "uint256",
					"name": "idx",
					"type": "uint256"
				}
			],
			"name": "getStudent",
			"outputs": [
				{
					"internalType": "string",
					"name": "",
					"type": "string"
				},
				{
					"internalType": "uint8",
					"name": "",
					"type": "uint8"
				}
			],
			"stateMutability": "view",
			"type": "function"
		},
		{
			"inputs": [
				{
					"internalType": "uint256",
					"name": "",
					"type": "uint256"
				}
			],
			"name": "students",
			"outputs": [
				{
					"internalType": "string",
					"name": "name",
					"type": "string"
				},
				{
					"internalType": "uint8",
					"name": "age",
					"type": "uint8"
				}
			],
			"stateMutability": "view",
			"type": "function"
		}
	]
}